{
  "transactions": [
    {
      "hash": "0x0ecd31d16806730b68818a7b47bc24bf7dc247651fe8bd7c5c42b1f5b24bce57",
      "transactionType": "CREATE",
      "contractName": "FartherAirdrop",
      "contractAddress": "0x3cae5a28489f8e3e90247484bc2584f1ecc4d3ef",
      "function": null,
      "arguments": [
        "0xf9A98fDC95A427fCfB1506A6E8A3143119417fBA",
        "0x3b937cb8ff0fb43a37308e431be4216969e6cd20525a40c7aa61d1ae0a4f8e27",
        "1717200000",
        "1748736000"
      ],
      "transaction": {
        "from": "0xca27037ced432fadf54dee9bc210dfd5ab2f13c8",
        "to": null,
        "gas": "0xd56c3",
        "value": "0x0",
        "input": "0x61010060405234801561001157600080fd5b50604051610c68380380610c68833981016040819052610030916100ef565b338061005657604051631e4fbdf760e01b81526000600482015260240160405180910390fd5b61005f8161009f565b50428111610080576040516372e54d4d60e01b815260040160405180910390fd5b60c09190915260e0526001600160a01b0390911660805260a05261013a565b600080546001600160a01b038381166001600160a01b0319831681178455604051919092169283917f8be0079c531659141344cd1fd0a4f28419497f9722a3daafe3b4186f6b6457e09190a35050565b6000806000806080858703121561010557600080fd5b84516001600160a01b038116811461011c57600080fd5b60208601516040870151606090970151919890975090945092505050565b60805160a05160c05160e051610ab86101b06000396000818160bd015281816102400152818161027501526104170152600081816101a1015281816101d8015261020d01526000818160ff015261034801526000818161012e015281816103a60152818161047901526104ee0152610ab86000f3fe608060405234801561001057600080fd5b506004361061009e5760003560e01c806382bfefc81161006657806382bfefc8146101295780638da5cb5b146101685780639e34070f14610179578063ddaa26ad1461019c578063f2fde38b146101c357600080fd5b80632e7ba6ef146100a357806337ba682d146100b85780633ccfd60b146100f257806351e75e8b146100fa578063715018a614610121575b600080fd5b6100b66100b13660046108d2565b6101d6565b005b6100df7f000000000000000000000000000000000000000000000000000000000000000081565b6040519081526020015b60405180910390f35b6100b661040d565b6100df7f000000000000000000000000000000000000000000000000000000000000000081565b6100b6610517565b6101507f000000000000000000000000000000000000000000000000000000000000000081565b6040516001600160a01b0390911681526020016100e9565b6000546001600160a01b0316610150565b61018c610187366004610969565b610529565b60405190151581526020016100e9565b6100df7f000000000000000000000000000000000000000000000000000000000000000081565b6100b66101d1366004610982565b61056a565b7f000000000000000000000000000000000000000000000000000000000000000042101561023e5760405163a737a19d60e01b81527f000000000000000000000000000000000000000000000000000000000000000060048201526024015b60405180910390fd5b7f00000000000000000000000000000000000000000000000000000000000000004211156102a157604051633cd408cb60e21b81527f00000000000000000000000000000000000000000000000000000000000000006004820152602401610235565b6102aa85610529565b156102c857604051630c8d9eab60e31b815260040160405180910390fd5b60408051602081018790526bffffffffffffffffffffffff19606087901b1691810191909152605481018490526000906074016040516020818303038152906040528051906020012090506103738383808060200260200160405190810160405280939291908181526020018383602002808284376000920191909152507f000000000000000000000000000000000000000000000000000000000000000092508591506105a89050565b610390576040516309bde33960e01b815260040160405180910390fd5b610399866105c0565b6103cd6001600160a01b037f00000000000000000000000000000000000000000000000000000000000000001686866105ff565b83856001600160a01b0316877f4ec90e965519d92681267467f775ada5bd214aa92c0dc93d90a5e880ce9ed02660405160405180910390a4505050505050565b610415610656565b7f000000000000000000000000000000000000000000000000000000000000000042101561045657604051630ee56a2b60e41b815260040160405180910390fd5b6040516370a0823160e01b81523060048201526105159033906001600160a01b037f000000000000000000000000000000000000000000000000000000000000000016906370a0823190602401602060405180830381865afa1580156104c0573d6000803e3d6000fd5b505050506040513d601f19601f820116820180604052508101906104e4919061099d565b6001600160a01b037f00000000000000000000000000000000000000000000000000000000000000001691906105ff565b565b61051f610656565b6105156000610683565b600080610538610100846109cc565b90506000610548610100856109e0565b60009283526001602081905260409093205492901b9182169091149392505050565b610572610656565b6001600160a01b03811661059c57604051631e4fbdf760e01b815260006004820152602401610235565b6105a581610683565b50565b6000826105b585846106d3565b1490505b9392505050565b60006105ce610100836109cc565b905060006105de610100846109e0565b600092835260016020819052604090932080549390911b9092179091555050565b604080516001600160a01b038416602482015260448082018490528251808303909101815260649091019091526020810180516001600160e01b031663a9059cbb60e01b179052610651908490610720565b505050565b6000546001600160a01b031633146105155760405163118cdaa760e01b8152336004820152602401610235565b600080546001600160a01b038381166001600160a01b0319831681178455604051919092169283917f8be0079c531659141344cd1fd0a4f28419497f9722a3daafe3b4186f6b6457e09190a35050565b600081815b845181101561071857610704828683815181106106f7576106f76109f4565b6020026020010151610783565b91508061071081610a0a565b9150506106d8565b509392505050565b60006107356001600160a01b038416836107af565b9050805160001415801561075a5750808060200190518101906107589190610a31565b155b1561065157604051635274afe760e01b81526001600160a01b0384166004820152602401610235565b600081831061079f5760008281526020849052604090206105b9565b5060009182526020526040902090565b60606105b98383600084600080856001600160a01b031684866040516107d59190610a53565b60006040518083038185875af1925050503d8060008114610812576040519150601f19603f3d011682016040523d82523d6000602084013e610817565b606091505b5091509150610827868383610831565b9695505050505050565b606082610846576108418261088d565b6105b9565b815115801561085d57506001600160a01b0384163b155b1561088657604051639996b31560e01b81526001600160a01b0385166004820152602401610235565b50806105b9565b80511561089d5780518082602001fd5b604051630a12f52160e11b815260040160405180910390fd5b80356001600160a01b03811681146108cd57600080fd5b919050565b6000806000806000608086880312156108ea57600080fd5b853594506108fa602087016108b6565b935060408601359250606086013567ffffffffffffffff8082111561091e57600080fd5b818801915088601f83011261093257600080fd5b81358181111561094157600080fd5b8960208260051b850101111561095657600080fd5b9699959850939650602001949392505050565b60006020828403121561097b57600080fd5b5035919050565b60006020828403121561099457600080fd5b6105b9826108b6565b6000602082840312156109af57600080fd5b5051919050565b634e487b7160e01b600052601260045260246000fd5b6000826109db576109db6109b6565b500490565b6000826109ef576109ef6109b6565b500690565b634e487b7160e01b600052603260045260246000fd5b600060018201610a2a57634e487b7160e01b600052601160045260246000fd5b5060010190565b600060208284031215610a4357600080fd5b815180151581146105b957600080fd5b6000825160005b81811015610a745760208186018101518583015201610a5a565b50600092019182525091905056fea264697066735822122068e7c29ff9b0d2faf6e8492d7dc42db912dd9de39c0b065b099c6655e83591ce64736f6c63430008140033000000000000000000000000f9a98fdc95a427fcfb1506a6e8a3143119417fba3b937cb8ff0fb43a37308e431be4216969e6cd20525a40c7aa61d1ae0a4f8e2700000000000000000000000000000000000000000000000000000000665a648000000000000000000000000000000000000000000000000000000000683b9800",
        "nonce": "0x13",
        "chainId": "0x2105",
        "accessList": null,
        "type": null
      },
      "additionalContracts": [],
      "isFixedGasLimit": false
    },
    {
      "hash": "0x9a5be8d073deaa7e15faf97d430d0b97ea76ee1038c5d5437a8d8841f849352a",
      "transactionType": "CALL",
      "contractName": "FartherAirdrop",
      "contractAddress": "0x3cae5a28489f8e3e90247484bc2584f1ecc4d3ef",
      "function": "transferOwnership(address)",
      "arguments": [
        "0xCa27037CeD432fadF54Dee9bC210DfD5ab2F13C8"
      ],
      "transaction": {
        "from": "0xca27037ced432fadf54dee9bc210dfd5ab2f13c8",
        "to": "0x3cae5a28489f8e3e90247484bc2584f1ecc4d3ef",
        "gas": "0x8b7c",
        "value": "0x0",
        "input": "0xf2fde38b000000000000000000000000ca27037ced432fadf54dee9bc210dfd5ab2f13c8",
        "nonce": "0x14",
        "chainId": "0x2105",
        "accessList": null,
        "type": null
      },
      "additionalContracts": [],
      "isFixedGasLimit": false
    },
    {
      "hash": "0x756e445365f30076269ac1e3ae6ef616c5b5a82c09931bdc9ef61523b9e370ce",
      "transactionType": "CALL",
      "contractName": null,
      "contractAddress": "0xf9a98fdc95a427fcfb1506a6e8a3143119417fba",
      "function": "transfer(address,uint256)",
      "arguments": [
        "0x3cae5a28489f8e3E90247484Bc2584F1ecC4D3eF",
        "1200000000000000000000"
      ],
      "transaction": {
        "from": "0xca27037ced432fadf54dee9bc210dfd5ab2f13c8",
        "to": "0xf9a98fdc95a427fcfb1506a6e8a3143119417fba",
        "gas": "0x14ec9",
        "value": "0x0",
        "input": "0xa9059cbb0000000000000000000000003cae5a28489f8e3e90247484bc2584f1ecc4d3ef0000000000000000000000000000000000000000000000410d586a20a4c00000",
        "nonce": "0x15",
        "chainId": "0x2105",
        "accessList": null,
        "type": null
      },
      "additionalContracts": [],
      "isFixedGasLimit": false
    }
  ],
  "receipts": [
    {
      "status": "0x1",
      "cumulativeGasUsed": "0x5056f3",
      "logs": [
        {
          "address": "0x3cae5a28489f8e3e90247484bc2584f1ecc4d3ef",
          "topics": [
            "0x8be0079c531659141344cd1fd0a4f28419497f9722a3daafe3b4186f6b6457e0",
            "0x0000000000000000000000000000000000000000000000000000000000000000",
            "0x000000000000000000000000ca27037ced432fadf54dee9bc210dfd5ab2f13c8"
          ],
          "data": "0x",
          "blockHash": "0x62be851305cc26666a1ed9f071fb1e7701d0465d4fd95cc71c459e0696066f89",
          "blockNumber": "0xe6899a",
          "transactionHash": "0x0ecd31d16806730b68818a7b47bc24bf7dc247651fe8bd7c5c42b1f5b24bce57",
          "transactionIndex": "0x20",
          "logIndex": "0x7d",
          "removed": false
        }
      ],
      "logsBloom": "0x00000000000000000000000000000000000000000000000000800000000000000000000000000000000000000000000000000010000000000000000000000000000000000000000000000000000000000001000000000000000000000000000000000000020000000000000000000800800000000000000000000000000000400000000000000000000000000000000000000000000000000000000802000000000000000000000000000000000000000000020000000000000000000000000000000000000000000200000000000000000000000000000000000000000020000000000000000000000000000000000000000000000000000000000000000000",
      "type": "0x2",
      "transactionHash": "0x0ecd31d16806730b68818a7b47bc24bf7dc247651fe8bd7c5c42b1f5b24bce57",
      "transactionIndex": "0x20",
      "blockHash": "0x62be851305cc26666a1ed9f071fb1e7701d0465d4fd95cc71c459e0696066f89",
      "blockNumber": "0xe6899a",
      "gasUsed": "0xa438e",
      "effectiveGasPrice": "0x740dbe",
      "from": "0xca27037ced432fadf54dee9bc210dfd5ab2f13c8",
      "to": null,
      "contractAddress": "0x3cae5a28489f8e3e90247484bc2584f1ecc4d3ef",
      "l1Fee": "0xa498853aee",
      "l1GasPrice": "0x329ccb96f",
      "l1GasUsed": "0xb89c"
    },
    {
      "status": "0x1",
      "cumulativeGasUsed": "0x50bbf0",
      "logs": [
        {
          "address": "0x3cae5a28489f8e3e90247484bc2584f1ecc4d3ef",
          "topics": [
            "0x8be0079c531659141344cd1fd0a4f28419497f9722a3daafe3b4186f6b6457e0",
            "0x000000000000000000000000ca27037ced432fadf54dee9bc210dfd5ab2f13c8",
            "0x000000000000000000000000ca27037ced432fadf54dee9bc210dfd5ab2f13c8"
          ],
          "data": "0x",
          "blockHash": "0x62be851305cc26666a1ed9f071fb1e7701d0465d4fd95cc71c459e0696066f89",
          "blockNumber": "0xe6899a",
          "transactionHash": "0x9a5be8d073deaa7e15faf97d430d0b97ea76ee1038c5d5437a8d8841f849352a",
          "transactionIndex": "0x21",
          "logIndex": "0x7e",
          "removed": false
        }
      ],
      "logsBloom": "0x00000000000000000000000000000000000000000000000000800000000000000000000000000000000000000000000000000010000000000000000000000000000000000000000000000000000000000001000000000000000000000000000000000000000000000000000000000000800000000000000000000000000000400000000000000000000000000000000000000000000000000000000802000000000000000000000000000000000000000000020000000000000000000000000000000000000000000200000000000000000000000000000000000000000000000000000000000000000000000000000000000000000000000000000000000000",
      "type": "0x2",
      "transactionHash": "0x9a5be8d073deaa7e15faf97d430d0b97ea76ee1038c5d5437a8d8841f849352a",
      "transactionIndex": "0x21",
      "blockHash": "0x62be851305cc26666a1ed9f071fb1e7701d0465d4fd95cc71c459e0696066f89",
      "blockNumber": "0xe6899a",
      "gasUsed": "0x64fd",
      "effectiveGasPrice": "0x740dbe",
      "from": "0xca27037ced432fadf54dee9bc210dfd5ab2f13c8",
      "to": "0x3cae5a28489f8e3e90247484bc2584f1ecc4d3ef",
      "contractAddress": null,
      "l1Fee": "0x7941949cd",
      "l1GasPrice": "0x329ccb96f",
      "l1GasUsed": "0x880"
    },
    {
      "status": "0x1",
      "cumulativeGasUsed": "0x51a0da",
      "logs": [
        {
          "address": "0xf9a98fdc95a427fcfb1506a6e8a3143119417fba",
          "topics": [
            "0xddf252ad1be2c89b69c2b068fc378daa952ba7f163c4a11628f55a4df523b3ef",
            "0x000000000000000000000000ca27037ced432fadf54dee9bc210dfd5ab2f13c8",
            "0x0000000000000000000000003cae5a28489f8e3e90247484bc2584f1ecc4d3ef"
          ],
          "data": "0x0000000000000000000000000000000000000000000000410d586a20a4c00000",
          "blockHash": "0x62be851305cc26666a1ed9f071fb1e7701d0465d4fd95cc71c459e0696066f89",
          "blockNumber": "0xe6899a",
          "transactionHash": "0x756e445365f30076269ac1e3ae6ef616c5b5a82c09931bdc9ef61523b9e370ce",
          "transactionIndex": "0x22",
          "logIndex": "0x7f",
          "removed": false
        }
      ],
      "logsBloom": "0x00000000010000000000000000000000000000000000000000000000000000000000000000000000000000040000000000000000000000000000000000000000000000000000000000000008000000000000000000000000000000000000000000000000000000000000000000000000000000000000000000000010000000000000000000000000000000000000000200000000000000002000000802000000000000000010000000000000000000000000000000000000000000000000000000000002000000000200000000000000000000000000000000000000000000000000000000000000000000000000000000000000000000000000002000000000",
      "type": "0x2",
      "transactionHash": "0x756e445365f30076269ac1e3ae6ef616c5b5a82c09931bdc9ef61523b9e370ce",
      "transactionIndex": "0x22",
      "blockHash": "0x62be851305cc26666a1ed9f071fb1e7701d0465d4fd95cc71c459e0696066f89",
      "blockNumber": "0xe6899a",
      "gasUsed": "0xe4ea",
      "effectiveGasPrice": "0x740dbe",
      "from": "0xca27037ced432fadf54dee9bc210dfd5ab2f13c8",
      "to": "0xf9a98fdc95a427fcfb1506a6e8a3143119417fba",
      "contractAddress": null,
      "l1Fee": "0x86da58923",
      "l1GasPrice": "0x329ccb96f",
      "l1GasUsed": "0x974"
    }
  ],
  "libraries": [],
  "pending": [],
  "returns": {},
  "timestamp": 1717006382,
  "chain": 8453,
  "commit": "e02c3f7"
}