{
  "transactions": [
    {
      "hash": "0xb83b861337e50da70d07195d8974931b9b0c93574b21c08bbbe04c76e4a1f132",
      "transactionType": "CALL",
      "contractName": null,
      "contractAddress": "0x09cf0d4472642e0c2a85de373b9c8c13c3140a31",
      "function": "castVote(uint256,uint8)",
      "arguments": [
        "2427678200132110988492448113579309402201509066561289971867613008686050538784",
        "1"
      ],
      "transaction": {
        "from": "0xca27037ced432fadf54dee9bc210dfd5ab2f13c8",
        "to": "0x09cf0d4472642e0c2a85de373b9c8c13c3140a31",
        "gas": "0x1db23",
        "value": "0x0",
        "input": "0x56781388055e04651e423881432231febaab4bf2980268a56182f99c40fb3babe9d175200000000000000000000000000000000000000000000000000000000000000001",
        "nonce": "0x24",
        "chainId": "0x2105",
        "accessList": null,
        "type": null
      },
      "additionalContracts": [],
      "isFixedGasLimit": false
    }
  ],
  "receipts": [
    {
      "status": "0x1",
      "cumulativeGasUsed": "0xd996dd",
      "logs": [
        {
          "address": "0x09cf0d4472642e0c2a85de373b9c8c13c3140a31",
          "topics": [
            "0xb8e138887d0aa13bab447e82de9d5c1777041ecd21ca36ba824ff1e6c07ddda4",
            "0x000000000000000000000000ca27037ced432fadf54dee9bc210dfd5ab2f13c8"
          ],
          "data": "0x055e04651e423881432231febaab4bf2980268a56182f99c40fb3babe9d175200000000000000000000000000000000000000000000000000000000000000001000000000000000000000000000000000000000002a5a07574d80789ab85ae0b00000000000000000000000000000000000000000000000000000000000000800000000000000000000000000000000000000000000000000000000000000000",
          "blockHash": "0x311734463ad3f8f3db1941983e1940307adb604215948bda5d9a810ec6b603b3",
          "blockNumber": "0x11f445f",
          "transactionHash": "0xb83b861337e50da70d07195d8974931b9b0c93574b21c08bbbe04c76e4a1f132",
          "transactionIndex": "0x4e",
          "logIndex": "0x106",
          "removed": false
        }
      ],
      "logsBloom": "0x00008000000000000000000000000000000100000000000000000000000000000000000000000000000000000000000000000000000000000000000000000000000020000000000000000000000000000000000000000000000000000000000000000000080000000000000000000000000000000000000000000000000000000000000000000000000000040000000000000000000000000000000802000000000000000000000000000000000000000000000000000000000000000000000000000000000000000200000000000000000000000000000080000000000000000000000000000000000000000000000000000000000000000000000000000000",
      "type": "0x2",
      "transactionHash": "0xb83b861337e50da70d07195d8974931b9b0c93574b21c08bbbe04c76e4a1f132",
      "transactionIndex": "0x4e",
      "blockHash": "0x311734463ad3f8f3db1941983e1940307adb604215948bda5d9a810ec6b603b3",
      "blockNumber": "0x11f445f",
      "gasUsed": "0x144e2",
      "effectiveGasPrice": "0xa0f159",
      "from": "0xca27037ced432fadf54dee9bc210dfd5ab2f13c8",
      "to": "0x09cf0d4472642e0c2a85de373b9c8c13c3140a31",
      "contractAddress": null,
      "l1BaseFeeScalar": "0x8dd",
      "l1BlobBaseFee": "0x1",
      "l1BlobBaseFeeScalar": "0x101c12",
      "l1Fee": "0x27ef65d4c",
      "l1GasPrice": "0xb000d7cf",
      "l1GasUsed": "0x640"
    }
  ],
  "libraries": [],
  "pending": [],
  "returns": {},
  "timestamp": 1724442023,
  "chain": 8453,
  "commit": "5e15beb"
}