{
  "transactions": [
    {
      "hash": "0x44469ee47dbe8a6a886d44663d93148916c22f2a7fda9642f1caae0a171be220",
      "transactionType": "CALL",
      "contractName": null,
      "contractAddress": "0x09cf0d4472642e0c2a85de373b9c8c13c3140a31",
      "function": "execute(address[],uint256[],bytes[],bytes32)",
      "arguments": [
        "[0xf9A98fDC95A427fCfB1506A6E8A3143119417fBA]",
        "[0]",
        "[0xa9059cbb000000000000000000000000ca27037ced432fadf54dee9bc210dfd5ab2f13c80000000000000000000000000000000000000000000000000000000000000001]",
        "0x140fa30b7bcd424730de89fe5edcbbc89acd4ac1b34c9bcb827ca931dc79fc72"
      ],
      "transaction": {
        "from": "0xca27037ced432fadf54dee9bc210dfd5ab2f13c8",
        "to": "0x09cf0d4472642e0c2a85de373b9c8c13c3140a31",
        "gas": "0x260f2",
        "value": "0x0",
        "input": "0x2656227d000000000000000000000000000000000000000000000000000000000000008000000000000000000000000000000000000000000000000000000000000000c00000000000000000000000000000000000000000000000000000000000000100140fa30b7bcd424730de89fe5edcbbc89acd4ac1b34c9bcb827ca931dc79fc720000000000000000000000000000000000000000000000000000000000000001000000000000000000000000f9a98fdc95a427fcfb1506a6e8a3143119417fba00000000000000000000000000000000000000000000000000000000000000010000000000000000000000000000000000000000000000000000000000000000000000000000000000000000000000000000000000000000000000000000000100000000000000000000000000000000000000000000000000000000000000200000000000000000000000000000000000000000000000000000000000000044a9059cbb000000000000000000000000ca27037ced432fadf54dee9bc210dfd5ab2f13c8000000000000000000000000000000000000000000000000000000000000000100000000000000000000000000000000000000000000000000000000",
        "nonce": "0x28",
        "chainId": "0x2105",
        "accessList": null,
        "type": null
      },
      "additionalContracts": [],
      "isFixedGasLimit": false
    }
  ],
  "receipts": [
    {
      "status": "0x1",
      "cumulativeGasUsed": "0xdf8aa9",
      "logs": [
        {
          "address": "0xf9a98fdc95a427fcfb1506a6e8a3143119417fba",
          "topics": [
            "0xddf252ad1be2c89b69c2b068fc378daa952ba7f163c4a11628f55a4df523b3ef",
            "0x00000000000000000000000009cf0d4472642e0c2a85de373b9c8c13c3140a31",
            "0x000000000000000000000000ca27037ced432fadf54dee9bc210dfd5ab2f13c8"
          ],
          "data": "0x0000000000000000000000000000000000000000000000000000000000000001",
          "blockHash": "0xe780428a5cdd7d9e098dfed7042b4d6c0904e551bff8af591f753989741c018f",
          "blockNumber": "0x11fd247",
          "transactionHash": "0x44469ee47dbe8a6a886d44663d93148916c22f2a7fda9642f1caae0a171be220",
          "transactionIndex": "0x46",
          "logIndex": "0x103",
          "removed": false
        },
        {
          "address": "0xf9a98fdc95a427fcfb1506a6e8a3143119417fba",
          "topics": [
            "0xdec2bacdd2f05b59de34da9b523dff8be42e5e38e818c82fdb0bae774387a724",
            "0x000000000000000000000000ca27037ced432fadf54dee9bc210dfd5ab2f13c8"
          ],
          "data": "0x000000000000000000000000000000000000000002a5a0700910a95c4875ae0b000000000000000000000000000000000000000002a5a0700910a95c4875ae0c",
          "blockHash": "0xe780428a5cdd7d9e098dfed7042b4d6c0904e551bff8af591f753989741c018f",
          "blockNumber": "0x11fd247",
          "transactionHash": "0x44469ee47dbe8a6a886d44663d93148916c22f2a7fda9642f1caae0a171be220",
          "transactionIndex": "0x46",
          "logIndex": "0x104",
          "removed": false
        },
        {
          "address": "0x09cf0d4472642e0c2a85de373b9c8c13c3140a31",
          "topics": [
            "0x712ae1383f79ac853f8d882153778e0260ef8f03b504e2866e0593e04d2b291f"
          ],
          "data": "0xaad904d452409a099aebe5dde28b5ad0d35e57bd3c2783be9ee8c2f9d8b811ea",
          "blockHash": "0xe780428a5cdd7d9e098dfed7042b4d6c0904e551bff8af591f753989741c018f",
          "blockNumber": "0x11fd247",
          "transactionHash": "0x44469ee47dbe8a6a886d44663d93148916c22f2a7fda9642f1caae0a171be220",
          "transactionIndex": "0x46",
          "logIndex": "0x105",
          "removed": false
        }
      ],
      "logsBloom": "0x00000000000000000000000000000000000100000000000000000000000000000000000000000200000000040000000000000000000000000000000000000000000020000000000000000008000000000000004000000000000000000000000000000000000000000040000000000000000000000000000000000010000000000000000000000000000000000000000200000008000000000000000802000000040000000030000000000000000000000000000000000000000020000000800000000002000000000200000000000000000000000100000080000000000000000000000000000000000000000000000000000000000000000000000000000000",
      "type": "0x2",
      "transactionHash": "0x44469ee47dbe8a6a886d44663d93148916c22f2a7fda9642f1caae0a171be220",
      "transactionIndex": "0x46",
      "blockHash": "0xe780428a5cdd7d9e098dfed7042b4d6c0904e551bff8af591f753989741c018f",
      "blockNumber": "0x11fd247",
      "gasUsed": "0x1b8df",
      "effectiveGasPrice": "0x7abc6b",
      "from": "0xca27037ced432fadf54dee9bc210dfd5ab2f13c8",
      "to": "0x09cf0d4472642e0c2a85de373b9c8c13c3140a31",
      "contractAddress": null,
      "l1BaseFeeScalar": "0x8dd",
      "l1BlobBaseFee": "0x1",
      "l1BlobBaseFeeScalar": "0x101c12",
      "l1Fee": "0x596a89f7d",
      "l1GasPrice": "0xdc0c53fb",
      "l1GasUsed": "0xb31"
    }
  ],
  "libraries": [],
  "pending": [],
  "returns": {},
  "timestamp": 1724514680,
  "chain": 8453,
  "commit": "92e22ec"
}