{
  "transactions": [
    {
      "hash": "0x2c1d064d99e2106c13f7b5c1e44359d4cea8e92ec60b99c456628b0139065aa1",
      "transactionType": "CALL",
      "contractName": null,
      "contractAddress": "0x09cf0d4472642e0c2a85de373b9c8c13c3140a31",
      "function": "propose(address[],uint256[],bytes[],string)",
      "arguments": [
        "[0xf9A98fDC95A427fCfB1506A6E8A3143119417fBA]",
        "[0]",
        "[0xa9059cbb000000000000000000000000ca27037ced432fadf54dee9bc210dfd5ab2f13c80000000000000000000000000000000000000000000000000000000000000001]",
        "\"transfer proposal 1\""
      ],
      "transaction": {
        "from": "0xca27037ced432fadf54dee9bc210dfd5ab2f13c8",
        "to": "0x09cf0d4472642e0c2a85de373b9c8c13c3140a31",
        "gas": "0x1a66f",
        "value": "0x0",
        "input": "0x7d5e81e2000000000000000000000000000000000000000000000000000000000000008000000000000000000000000000000000000000000000000000000000000000c0000000000000000000000000000000000000000000000000000000000000010000000000000000000000000000000000000000000000000000000000000001c00000000000000000000000000000000000000000000000000000000000000001000000000000000000000000f9a98fdc95a427fcfb1506a6e8a3143119417fba00000000000000000000000000000000000000000000000000000000000000010000000000000000000000000000000000000000000000000000000000000000000000000000000000000000000000000000000000000000000000000000000100000000000000000000000000000000000000000000000000000000000000200000000000000000000000000000000000000000000000000000000000000044a9059cbb000000000000000000000000ca27037ced432fadf54dee9bc210dfd5ab2f13c800000000000000000000000000000000000000000000000000000000000000010000000000000000000000000000000000000000000000000000000000000000000000000000000000000000000000000000000000000000000000137472616e736665722070726f706f73616c203100000000000000000000000000",
        "nonce": "0x26",
        "chainId": "0x2105",
        "accessList": null,
        "type": null
      },
      "additionalContracts": [],
      "isFixedGasLimit": false
    }
  ],
  "receipts": [
    {
      "status": "0x1",
      "cumulativeGasUsed": "0x112c737",
      "logs": [
        {
          "address": "0x09cf0d4472642e0c2a85de373b9c8c13c3140a31",
          "topics": [
            "0x7d84a6263ae0d98d3329bd7b46bb4e8d6f98cd35a7adb45c274c8b7fd5ebd5e0"
          ],
          "data": "0xaad904d452409a099aebe5dde28b5ad0d35e57bd3c2783be9ee8c2f9d8b811ea000000000000000000000000ca27037ced432fadf54dee9bc210dfd5ab2f13c80000000000000000000000000000000000000000000000000000000000000120000000000000000000000000000000000000000000000000000000000000016000000000000000000000000000000000000000000000000000000000000001a0000000000000000000000000000000000000000000000000000000000000020000000000000000000000000000000000000000000000000000000000011fcbf700000000000000000000000000000000000000000000000000000000011fcc8d00000000000000000000000000000000000000000000000000000000000002c00000000000000000000000000000000000000000000000000000000000000001000000000000000000000000f9a98fdc95a427fcfb1506a6e8a3143119417fba00000000000000000000000000000000000000000000000000000000000000010000000000000000000000000000000000000000000000000000000000000000000000000000000000000000000000000000000000000000000000000000000100000000000000000000000000000000000000000000000000000000000000200000000000000000000000000000000000000000000000000000000000000000000000000000000000000000000000000000000000000000000000000000000100000000000000000000000000000000000000000000000000000000000000200000000000000000000000000000000000000000000000000000000000000044a9059cbb000000000000000000000000ca27037ced432fadf54dee9bc210dfd5ab2f13c800000000000000000000000000000000000000000000000000000000000000010000000000000000000000000000000000000000000000000000000000000000000000000000000000000000000000000000000000000000000000137472616e736665722070726f706f73616c203100000000000000000000000000",
          "blockHash": "0x0b04fe1949f050d94e3e93d546ae72c39324e1dde194580556e36011072931a7",
          "blockNumber": "0x11fcbf7",
          "transactionHash": "0x2c1d064d99e2106c13f7b5c1e44359d4cea8e92ec60b99c456628b0139065aa1",
          "transactionIndex": "0x45",
          "logIndex": "0x15b",
          "removed": false
        }
      ],
      "logsBloom": "0x00000000000000000000000000000000000100000000000000000000000000000000000000000000000000000000000000000000000000000000000000000000000020000002000000000000000000000000000000000000000000000000000000000000000000000000000000000000000000000000000000000000000000000000000000000000000000000000000000000000000000000000000000000000080000000000000000000000000000000000000000000000000000000000000200000000000000000000000000000000000000000000000080000000000000000000000000000000000000000000000000000000000000000000000000000000",
      "type": "0x2",
      "transactionHash": "0x2c1d064d99e2106c13f7b5c1e44359d4cea8e92ec60b99c456628b0139065aa1",
      "transactionIndex": "0x45",
      "blockHash": "0x0b04fe1949f050d94e3e93d546ae72c39324e1dde194580556e36011072931a7",
      "blockNumber": "0x11fcbf7",
      "gasUsed": "0x131d6",
      "effectiveGasPrice": "0x8c4c1d",
      "from": "0xca27037ced432fadf54dee9bc210dfd5ab2f13c8",
      "to": "0x09cf0d4472642e0c2a85de373b9c8c13c3140a31",
      "contractAddress": null,
      "l1BaseFeeScalar": "0x8dd",
      "l1BlobBaseFee": "0x1",
      "l1BlobBaseFeeScalar": "0x101c12",
      "l1Fee": "0x1cddbfd43",
      "l1GasPrice": "0x486400b0",
      "l1GasUsed": "0xafb"
    }
  ],
  "libraries": [],
  "pending": [],
  "returns": {},
  "timestamp": 1724511447,
  "chain": 8453,
  "commit": "92e22ec"
}