{
  "transactions": [
    {
      "hash": "0x966615d2189204b9ac48452f52cf4ac266e05c670328dfb827a45d3c75613c32",
      "transactionType": "CALL",
      "contractName": null,
      "contractAddress": "0x09cf0d4472642e0c2a85de373b9c8c13c3140a31",
      "function": "propose(address[],uint256[],bytes[],string)",
      "arguments": [
        "[0xf627A7E313B6c2Dd4CcA73ae65AEa9f48592eef2]",
        "[0]",
        "[0x6a761202000000000000000000000000f9a98fdc95a427fcfb1506a6e8a3143119417fba0000000000000000000000000000000000000000000000000000000000000000000000000000000000000000000000000000000000000000000000000000014000000000000000000000000000000000000000000000000000000000000000000000000000000000000000000000000000000000000000000000000000000000000000000000000000000000000000000000000000000000000000000000000000000000000000000000000000000000000000000000000000000000000000000000000000000000000000000000000000000000000000000000000000000000000000000000000000000000000000000000000000000000000000000000000000000000000000000000000000000000000000000000000000000000000001c00000000000000000000000000000000000000000000000000000000000000044a9059cbb000000000000000000000000ca27037ced432fadf54dee9bc210dfd5ab2f13c8000000000000000000000000000000000000000000000000000000000000a455000000000000000000000000000000000000000000000000000000000000000000000000000000000000000000000000000000000000000000000000]",
        "\"transfer proposal 42069\""
      ],
      "transaction": {
        "from": "0xca27037ced432fadf54dee9bc210dfd5ab2f13c8",
        "to": "0x09cf0d4472642e0c2a85de373b9c8c13c3140a31",
        "gas": "0x1ce5b",
        "value": "0x0",
        "input": "0x7d5e81e2000000000000000000000000000000000000000000000000000000000000008000000000000000000000000000000000000000000000000000000000000000c0000000000000000000000000000000000000000000000000000000000000010000000000000000000000000000000000000000000000000000000000000003600000000000000000000000000000000000000000000000000000000000000001000000000000000000000000f627a7e313b6c2dd4cca73ae65aea9f48592eef2000000000000000000000000000000000000000000000000000000000000000100000000000000000000000000000000000000000000000000000000000000000000000000000000000000000000000000000000000000000000000000000001000000000000000000000000000000000000000000000000000000000000002000000000000000000000000000000000000000000000000000000000000001e46a761202000000000000000000000000f9a98fdc95a427fcfb1506a6e8a3143119417fba0000000000000000000000000000000000000000000000000000000000000000000000000000000000000000000000000000000000000000000000000000014000000000000000000000000000000000000000000000000000000000000000000000000000000000000000000000000000000000000000000000000000000000000000000000000000000000000000000000000000000000000000000000000000000000000000000000000000000000000000000000000000000000000000000000000000000000000000000000000000000000000000000000000000000000000000000000000000000000000000000000000000000000000000000000000000000000000000000000000000000000000000000000000000000000000001c00000000000000000000000000000000000000000000000000000000000000044a9059cbb000000000000000000000000ca27037ced432fadf54dee9bc210dfd5ab2f13c8000000000000000000000000000000000000000000000000000000000000a4550000000000000000000000000000000000000000000000000000000000000000000000000000000000000000000000000000000000000000000000000000000000000000000000000000000000000000000000000000000000000000000000000000000000000000000000000000000000000000000000177472616e736665722070726f706f73616c203432303639000000000000000000",
        "nonce": "0x22",
        "chainId": "0x2105",
        "accessList": null,
        "type": null
      },
      "additionalContracts": [],
      "isFixedGasLimit": false
    }
  ],
  "receipts": [
    {
      "status": "0x1",
      "cumulativeGasUsed": "0xd851b2",
      "logs": [
        {
          "address": "0x09cf0d4472642e0c2a85de373b9c8c13c3140a31",
          "topics": [
            "0x7d84a6263ae0d98d3329bd7b46bb4e8d6f98cd35a7adb45c274c8b7fd5ebd5e0"
          ],
          "data": "0xe0d98bbd707698de5df1442e54af667f308056ae1b8e1feef7e1d9eb4de90dae000000000000000000000000ca27037ced432fadf54dee9bc210dfd5ab2f13c80000000000000000000000000000000000000000000000000000000000000120000000000000000000000000000000000000000000000000000000000000016000000000000000000000000000000000000000000000000000000000000001a0000000000000000000000000000000000000000000000000000000000000020000000000000000000000000000000000000000000000000000000000011f41a700000000000000000000000000000000000000000000000000000000011f423d00000000000000000000000000000000000000000000000000000000000004600000000000000000000000000000000000000000000000000000000000000001000000000000000000000000f627a7e313b6c2dd4cca73ae65aea9f48592eef2000000000000000000000000000000000000000000000000000000000000000100000000000000000000000000000000000000000000000000000000000000000000000000000000000000000000000000000000000000000000000000000001000000000000000000000000000000000000000000000000000000000000002000000000000000000000000000000000000000000000000000000000000000000000000000000000000000000000000000000000000000000000000000000001000000000000000000000000000000000000000000000000000000000000002000000000000000000000000000000000000000000000000000000000000001e46a761202000000000000000000000000f9a98fdc95a427fcfb1506a6e8a3143119417fba0000000000000000000000000000000000000000000000000000000000000000000000000000000000000000000000000000000000000000000000000000014000000000000000000000000000000000000000000000000000000000000000000000000000000000000000000000000000000000000000000000000000000000000000000000000000000000000000000000000000000000000000000000000000000000000000000000000000000000000000000000000000000000000000000000000000000000000000000000000000000000000000000000000000000000000000000000000000000000000000000000000000000000000000000000000000000000000000000000000000000000000000000000000000000000000001c00000000000000000000000000000000000000000000000000000000000000044a9059cbb000000000000000000000000ca27037ced432fadf54dee9bc210dfd5ab2f13c8000000000000000000000000000000000000000000000000000000000000a4550000000000000000000000000000000000000000000000000000000000000000000000000000000000000000000000000000000000000000000000000000000000000000000000000000000000000000000000000000000000000000000000000000000000000000000000000000000000000000000000177472616e736665722070726f706f73616c203432303639000000000000000000",
          "blockHash": "0x187f87e640ea86d4ff4f5a8aba7b5503508c819ac6589197061635dbbb3cbaa9",
          "blockNumber": "0x11f41a7",
          "transactionHash": "0x966615d2189204b9ac48452f52cf4ac266e05c670328dfb827a45d3c75613c32",
          "transactionIndex": "0x54",
          "logIndex": "0x15f",
          "removed": false
        }
      ],
      "logsBloom": "0x00000000000000000000000000000000000100000000000000000000000000000000000000000000000000000000000000000000000000000000000000000000000020000002000000000000000000000000000000000000000000000000000000000000000000000000000000000000000000000000000000000000000000000000000000000000000000000000000000000000000000000000000000000000080000000000000000000000000000000000000000000000000000000000000200000000000000000000000000000000000000000000000080000000000000000000000000000000000000000000000000000000000000000000000000000000",
      "type": "0x2",
      "transactionHash": "0x966615d2189204b9ac48452f52cf4ac266e05c670328dfb827a45d3c75613c32",
      "transactionIndex": "0x54",
      "blockHash": "0x187f87e640ea86d4ff4f5a8aba7b5503508c819ac6589197061635dbbb3cbaa9",
      "blockNumber": "0x11f41a7",
      "gasUsed": "0x14ebe",
      "effectiveGasPrice": "0xa2ed28",
      "from": "0xca27037ced432fadf54dee9bc210dfd5ab2f13c8",
      "to": "0x09cf0d4472642e0c2a85de373b9c8c13c3140a31",
      "contractAddress": null,
      "l1BaseFeeScalar": "0x8dd",
      "l1BlobBaseFee": "0x1",
      "l1BlobBaseFeeScalar": "0x101c12",
      "l1Fee": "0x6e7a40fad",
      "l1GasPrice": "0xd45cfa52",
      "l1GasUsed": "0xe54"
    }
  ],
  "libraries": [],
  "pending": [],
  "returns": {},
  "timestamp": 1724440632,
  "chain": 8453,
  "commit": "5e15beb"
}