{
  "transactions": [
    {
      "hash": "0xa453f4f0b59e1cdcf353436b4b2d36a0df642dd0c08f7e6f68fddb8f4ec10c10",
      "transactionType": "CALL",
      "contractName": null,
      "contractAddress": "0x09cf0d4472642e0c2a85de373b9c8c13c3140a31",
      "function": "propose(address[],uint256[],bytes[],string)",
      "arguments": [
        "[0xf627A7E313B6c2Dd4CcA73ae65AEa9f48592eef2]",
        "[0]",
        "[0x6a761202000000000000000000000000f9a98fdc95a427fcfb1506a6e8a3143119417fba0000000000000000000000000000000000000000000000000000000000000000000000000000000000000000000000000000000000000000000000000000014000000000000000000000000000000000000000000000000000000000000000000000000000000000000000000000000000000000000000000000000000000000000000000000000000000000000000000000000000000000000000000000000000000000000000000000000000000000000000000000000000000000000000000000000000000000000000000000000000000000000000000000000000000000000000000000000000000000000000000000000000000000000000000000000000000000000000000000000000000000000000000000000000000000000001c00000000000000000000000000000000000000000000000000000000000000044a9059cbb000000000000000000000000ca27037ced432fadf54dee9bc210dfd5ab2f13c80000000000000000000000000000000000000000000000000000000000000001000000000000000000000000000000000000000000000000000000000000000000000000000000000000000000000000000000000000000000000000]",
        "\"transfer proposal 1\""
      ],
      "transaction": {
        "from": "0xca27037ced432fadf54dee9bc210dfd5ab2f13c8",
        "to": "0x09cf0d4472642e0c2a85de373b9c8c13c3140a31",
        "gas": "0x1e937",
        "value": "0x0",
        "input": "0x7d5e81e2000000000000000000000000000000000000000000000000000000000000008000000000000000000000000000000000000000000000000000000000000000c0000000000000000000000000000000000000000000000000000000000000010000000000000000000000000000000000000000000000000000000000000003600000000000000000000000000000000000000000000000000000000000000001000000000000000000000000f627a7e313b6c2dd4cca73ae65aea9f48592eef2000000000000000000000000000000000000000000000000000000000000000100000000000000000000000000000000000000000000000000000000000000000000000000000000000000000000000000000000000000000000000000000001000000000000000000000000000000000000000000000000000000000000002000000000000000000000000000000000000000000000000000000000000001e46a761202000000000000000000000000f9a98fdc95a427fcfb1506a6e8a3143119417fba0000000000000000000000000000000000000000000000000000000000000000000000000000000000000000000000000000000000000000000000000000014000000000000000000000000000000000000000000000000000000000000000000000000000000000000000000000000000000000000000000000000000000000000000000000000000000000000000000000000000000000000000000000000000000000000000000000000000000000000000000000000000000000000000000000000000000000000000000000000000000000000000000000000000000000000000000000000000000000000000000000000000000000000000000000000000000000000000000000000000000000000000000000000000000000000001c00000000000000000000000000000000000000000000000000000000000000044a9059cbb000000000000000000000000ca27037ced432fadf54dee9bc210dfd5ab2f13c800000000000000000000000000000000000000000000000000000000000000010000000000000000000000000000000000000000000000000000000000000000000000000000000000000000000000000000000000000000000000000000000000000000000000000000000000000000000000000000000000000000000000000000000000000000000000000000000000000000000000137472616e736665722070726f706f73616c203100000000000000000000000000",
        "nonce": "0x23",
        "chainId": "0x2105",
        "accessList": null,
        "type": null
      },
      "additionalContracts": [],
      "isFixedGasLimit": false
    }
  ],
  "receipts": [
    {
      "status": "0x1",
      "cumulativeGasUsed": "0x12e8c02",
      "logs": [
        {
          "address": "0x09cf0d4472642e0c2a85de373b9c8c13c3140a31",
          "topics": [
            "0x7d84a6263ae0d98d3329bd7b46bb4e8d6f98cd35a7adb45c274c8b7fd5ebd5e0"
          ],
          "data": "0x055e04651e423881432231febaab4bf2980268a56182f99c40fb3babe9d17520000000000000000000000000ca27037ced432fadf54dee9bc210dfd5ab2f13c80000000000000000000000000000000000000000000000000000000000000120000000000000000000000000000000000000000000000000000000000000016000000000000000000000000000000000000000000000000000000000000001a0000000000000000000000000000000000000000000000000000000000000020000000000000000000000000000000000000000000000000000000000011f444700000000000000000000000000000000000000000000000000000000011f44dd00000000000000000000000000000000000000000000000000000000000004600000000000000000000000000000000000000000000000000000000000000001000000000000000000000000f627a7e313b6c2dd4cca73ae65aea9f48592eef2000000000000000000000000000000000000000000000000000000000000000100000000000000000000000000000000000000000000000000000000000000000000000000000000000000000000000000000000000000000000000000000001000000000000000000000000000000000000000000000000000000000000002000000000000000000000000000000000000000000000000000000000000000000000000000000000000000000000000000000000000000000000000000000001000000000000000000000000000000000000000000000000000000000000002000000000000000000000000000000000000000000000000000000000000001e46a761202000000000000000000000000f9a98fdc95a427fcfb1506a6e8a3143119417fba0000000000000000000000000000000000000000000000000000000000000000000000000000000000000000000000000000000000000000000000000000014000000000000000000000000000000000000000000000000000000000000000000000000000000000000000000000000000000000000000000000000000000000000000000000000000000000000000000000000000000000000000000000000000000000000000000000000000000000000000000000000000000000000000000000000000000000000000000000000000000000000000000000000000000000000000000000000000000000000000000000000000000000000000000000000000000000000000000000000000000000000000000000000000000000000001c00000000000000000000000000000000000000000000000000000000000000044a9059cbb000000000000000000000000ca27037ced432fadf54dee9bc210dfd5ab2f13c800000000000000000000000000000000000000000000000000000000000000010000000000000000000000000000000000000000000000000000000000000000000000000000000000000000000000000000000000000000000000000000000000000000000000000000000000000000000000000000000000000000000000000000000000000000000000000000000000000000000000137472616e736665722070726f706f73616c203100000000000000000000000000",
          "blockHash": "0xf063ae04352813095a20df644fae74fb44f335a79ed1c26e8f25f7201edfa59c",
          "blockNumber": "0x11f4447",
          "transactionHash": "0xa453f4f0b59e1cdcf353436b4b2d36a0df642dd0c08f7e6f68fddb8f4ec10c10",
          "transactionIndex": "0x48",
          "logIndex": "0x192",
          "removed": false
        }
      ],
      "logsBloom": "0x00000000000000000000000000000000000100000000000000000000000000000000000000000000000000000000000000000000000000000000000000000000000020000002000000000000000000000000000000000000000000000000000000000000000000000000000000000000000000000000000000000000000000000000000000000000000000000000000000000000000000000000000000000000080000000000000000000000000000000000000000000000000000000000000200000000000000000000000000000000000000000000000080000000000000000000000000000000000000000000000000000000000000000000000000000000",
      "type": "0x2",
      "transactionHash": "0xa453f4f0b59e1cdcf353436b4b2d36a0df642dd0c08f7e6f68fddb8f4ec10c10",
      "transactionIndex": "0x48",
      "blockHash": "0xf063ae04352813095a20df644fae74fb44f335a79ed1c26e8f25f7201edfa59c",
      "blockNumber": "0x11f4447",
      "gasUsed": "0x14e82",
      "effectiveGasPrice": "0xa07a45",
      "from": "0xca27037ced432fadf54dee9bc210dfd5ab2f13c8",
      "to": "0x09cf0d4472642e0c2a85de373b9c8c13c3140a31",
      "contractAddress": null,
      "l1BaseFeeScalar": "0x8dd",
      "l1BlobBaseFee": "0x1",
      "l1BlobBaseFeeScalar": "0x101c12",
      "l1Fee": "0x5e847d759",
      "l1GasPrice": "0xba722ef5",
      "l1GasUsed": "0xdf6"
    }
  ],
  "libraries": [],
  "pending": [],
  "returns": {},
  "timestamp": 1724441976,
  "chain": 8453,
  "commit": "5e15beb"
}